{
  "contractName": "BmeToken",
  "abi": [
    {
      "inputs": [],
      "payable": false,
      "stateMutability": "nonpayable",
      "type": "constructor"
    },
    {
      "constant": true,
      "inputs": [],
      "name": "totalSupply",
      "outputs": [
        {
          "internalType": "uint256",
          "name": "",
          "type": "uint256"
        }
      ],
      "payable": false,
      "stateMutability": "view",
      "type": "function"
    }
  ],
  "bytecode": "0x6080604052348015600f57600080fd5b50620f42406000819055506084806100286000396000f3fe6080604052348015600f57600080fd5b506004361060285760003560e01c806318160ddd14602d575b600080fd5b60336049565b6040518082815260200191505060405180910390f35b6000548156fea265627a7a7231582033c72d27d59ea000fc57da55c38422d7629d5a4faa67a43d5b659551c9ed9c1b64736f6c63430005100032",
  "source": "pragma solidity ^0.5.16;\r\n\r\ncontract BmeToken {\r\n\t// Constructor \r\n\t// Set the total number of tokens \r\n\t// Read the total number of tokens\r\n\tuint256 public totalSupply;\r\n\r\n\tconstructor() public{\r\n\t\ttotalSupply = 1000000;\r\n\t}\r\n}",
  "sourcePath": "D:/Project/token_sale/contracts/BmeToken.sol",
  "compiler": {
    "name": "solc",
    "version": "0.5.16+commit.9c3226ce.Emscripten.clang"
  },
  "schemaVersion": "3.3.2",
  "updatedAt": "2020-11-10T19:33:48.178Z",
  "networkType": "ethereum",
  "devdoc": {
    "methods": {}
  },
  "userdoc": {
    "methods": {}
  }
}